:020000040800F2
:10000000E804002045010008B70B0008310B000888
:10001000B30B000821070008392200080000000087
:100020000000000000000000000000006112000855
:10003000D509000800000000490C0008551400080C
:100040005F0100085F0100085F0100085F01000810
:100050005F0100085F0100085F0100085F01000800
:100060005F0100085F0100085F0100085F010008F0
:100070005F010008250700082D0700085F01000840
:100080005F0100085F0100085F0100085F010008D0
:100090005F0100085F0100085F0100085F010008C0
:1000A0005F010008191500085F0100085F010008E2
:1000B0005F0100085F0100085F0100085F010008A0
:1000C0005F0100085F0100085F0100085F01000890
:1000D0005F010008551E00085F0100085F0100086D
:1000E0005F0100085F0100085F0100085F01000870
:1000F0005F0100085F0100085F0100085F01000860
:100100005F0100085F0100085F0100085F0100084F
:100110005F0100085F0100085F0100085F0100083F
:100120005F0100085F0100085F0100085F0100082F
:10013000DFF80CD000F0E2FA00480047092C000874
:10014000E80400200648804706480047FEE7FEE72F
:10015000FEE7FEE7FEE7FEE7FEE7FEE7FEE7FEE777
:100160005914000831010008D2B201E000F8012B57
:10017000491EFBD270470022F6E710B513460A4627
:1001800004461946FFF7F0FF204610BD2DE9FE4F4B
:10019000804681EA0300C00F0C46009021F0004128
:1001A00023F00045B8EB0200A94105D240462146A4
:1001B00090461C460B46024623F00040104347D0B1
:1001C000270DC7F30A00C3F30A510290401A0190A9
:1001D00040286BDAC3F3130040F4801B009892466A
:1001E00020B10023D2EB030A63EB0B0B01985946B5
:1001F000C0F14002504600F0DAF906460D4650467E
:100200005946019A00F0F2F910EB08006141002410
:1002100087EA115284EAE7731A4340D0009A62B326
:10022000019A012A4FEA075215DC001B61EB02011B
:100230004FF0004202EA0752CDE90042001C41F5AE
:10024000801132462B4600F0F2F903B0BDE8F08F82
:1002500040462146F9E7001B61EB0201001C41F515
:10026000801300185B412018A2F5001747EB03012B
:1002700040EAD570B6196D4111E06D084FEA3606B7
:1002800045EAC0754FEA0752001B61EB0201001CF2
:1002900041F5801149084FEA3000001951413246BA
:1002A0002B4603B0BDE8F04F00F0B2B90098012230
:1002B00040000023D0EB020263EBE073009821467C
:1002C0004FEAE074B8EB000061EB0401E9E783F06A
:1002D00000435BE781F0004158E72DE9FE4F81EADA
:1002E000030404F0004421F0004100944FF0000B9F
:1002F00023F0004350EA01045ED052EA03045BD0CD
:10030000C3F30A54C1F30A552C44A4F2F334019404
:10031000A0FB0254C1F3130141F48011C3F3130392
:1003200043F4801301FB024400FB034E840A970A46
:1003300044EA815447EA8357A4FB076802958D0A73
:1003400005FB07854FEA932C04FB0C542705029DFF
:100350004FEA065847EA1637B5EB08056EEB070C6F
:10036000870E920E47EA811742EA8312A7FB020129
:10037000B6EB0B0164EB00042B0D43EA0C335E1863
:1003800044EB1C50DA465146E7FB0201C5F3130467
:100390004FEA0B3343EA14534FEA0432019C43EA19
:1003A0000603A4F10C040294009CCDE900B400F013
:1003B0003EF903B0BDE8F08F00200146F9E72DE9D2
:1003C000F04D81EA030404F0004B21F0004514468F
:1003D0004FF0000A23F0004150EA050220D054EA11
:1003E00001021DD0C5F30A570246C5F31303C1F33A
:1003F0001300C1F30A5640F4801543F48013A7EBB1
:100400000608101BD64608F2FD3873EB050002D330
:1004100008F1010801E092185B41B8F1000F03DA1E
:1004200000200146BDE8F08D00204FF48011064603
:1004300084460EE0171B73EB050705D3121B63EB15
:10044000050306434CEA010C49084FEA30009218B4
:100450005B4150EA0107EDD152EA030012D082EA73
:10046000040083EA0501084305D0101BAB4106D206
:100470000122002306E000224FF0004302E06FF06B
:10048000010253101AEB06004CEB085110EB0A0066
:1004900041EB0B01BDE8F04D00F0BAB80EB5C10F4D
:1004A00080EAE0700844CA07002140F233438DE837
:1004B0000E000A460B4600F0BAF803B000BDC1F3C7
:1004C0000A5210B5C1F3130140F2FF3341F4801119
:1004D0009A4201DA002010BD40F233439A42A2F260
:1004E000334203DC524200F071F810BD904010BD61
:1004F00030B5041E71F1000404DB4FF000444042AB
:1005000064EB0101141E73F1000405DB1C464FF07F
:100510000043524263EB0403994208BF904230BD4E
:1005200030B50B46014600202022012409E021FAC3
:1005300002F59D4205D303FA02F5491B04FA02F5C0
:100540002844151EA2F10102F1DC30BD2DE9F05F57
:100550000546002092469B46884606468146402432
:100560001BE0284641464746224600F02FF85346F6
:100570005A46C01A914110D311461846224600F03F
:1005800016F82D1A67EB01084F462246012000217C
:1005900000F00DF817EB00094E41201EA4F10104F4
:1005A000DFDC484631462A464346BDE8F09F202A14
:1005B00004DB203A00FA02F1002070479140C2F1BA
:1005C000200320FA03F3194390407047202A04DBEC
:1005D000203A21FA02F00021704721FA02F3D040BC
:1005E000C2F120029140084319467047202A06DBD9
:1005F000CB17203A41FA02F043EAE07306E041FAF1
:1006000002F3D040C2F120029140084319467047DE
:1006100010B5141E73F1000408DA401C41F100010A
:1006200092185B411A4301D120F0010010BD2DE961
:10063000F04D92469B4611B1B1FA81F202E0B0FA58
:1006400080F220329046FFF7B2FF04460F4640EAA0
:100650000A0041EA0B0153465A46084313D011469B
:1006600053EA010019D0C8F140025046FFF7AEFF2F
:1006700005460E46504659464246FFF798FF084346
:1006800005D0012004E020463946BDE8F08D002069
:10069000054346EAE0762C4337430A986305E40AAB
:1006A000A0EB08000022FD0A44EA47540A3002D5B4
:1006B00000200146E9E7010510196941DDE9084517
:1006C00000196941BDE8F04DA2E7C1F30A52C1F338
:1006D000130140F2FF3341F480119A4202DA002004
:1006E0000146704740F233439A42A2F2334202DCA1
:1006F0005242FFF76BBFFFF75ABF0000064C074D91
:1007000006E0E06840F0010394E8070098471034E1
:10071000AC42F6D3FFF710FD302C0008502C000837
:1007200000BFFEE710B500F0E5F910BD10B501F00F
:1007300076FD10BD0020014908707047460000207A
:1007400000F0805111B10349086001E0024948609E
:1007500070470000040402400000024021B102681A
:1007600042F00102026004E002684FF6FE731A4094
:100770000260704701684FF6FE721140016000216F
:10078000016041608160C1604B49884208D14A499B
:100790000839496841F00F01474A083A51608AE038
:1007A00045491431884208D143490839496841F024
:1007B000F001414A083A51607DE03F4928318842C2
:1007C00008D13D490839496841F470613A4A083A0C
:1007D000516070E038493C31884208D136490839C7
:1007E000496841F47041344A083A516063E0324943
:1007F0005031884208D130490839496841F47021A4
:100800002D4A083A516056E02B496431884208D19C
:1008100029490839496841F47001274A083A51606A
:1008200049E025497831884208D123490839496887
:1008300041F07061204A083A51603CE01F4988420B
:1008400006D1011F096841F00F01021F116032E05B
:100850001A491431884208D11849091F096841F022
:10086000F001164A121F116025E014492831884210
:1008700008D11249091F096841F470610F4A121F1B
:10088000116018E00D493C31884208D10B49091F1D
:10089000096841F47041094A121F11600BE00749D1
:1008A0005031884207D10549091F096841F4702178
:1008B000024A121F116070470800024008040240FB
:1008C00001460020002201F0805313B1054B1A6845
:1008D00001E0054B1A6802EA01030BB1012000E0B8
:1008E0000020704700040240000002401AB1036873
:1008F0000B43036002E003688B430360704710B54D
:100900000022026847F6F0739A430C6A8B6823430F
:100910000C6923434C6923438C692343CC692343EB
:100920004C6A23438C6A23431A430260CB684360BA
:100930000B6883604B68C36010BD000000B58DB0CC
:100940000121084600F082F91F48FFF713FF1F48F6
:1009500002901F480390102004900A200590002068
:100960000690802007900020089009900A904FF48C
:1009700080500B9000200C9002A91348FFF7BFFF96
:100980004FF4C06000F056F90E208DF804000120ED
:100990008DF8050000208DF8060001208DF8070075
:1009A00001A800F00FF9012202210748FFF79EFF7E
:1009B00001210548FFF7D2FE012280210348001FD4
:1009C00001F004FB0DB000BD4400024004380140BA
:1009D0005000002070472DE9F04102460025002616
:1009E000002000230024002791F803C00CF00F051D
:1009F00091F803C00CF0100CBCF1000F03D091F87B
:100A000002C04CEA050591F800C0BCF1000F31D0DE
:100A1000146800202BE04FF0010C0CFA00F3B1F841
:100A200000C00CEA03069E4220D183004FF00F0C59
:100A30000CFA03F7BC4305FA03FC4CEA040491F8F2
:100A400003C0BCF1280F06D14FF0010C0CFA00FCDA
:100A5000C2F814C00AE091F803C0BCF1480F05D1F8
:100A60004FF0010C0CFA00FCC2F810C0401C082822
:100A7000D1D31460B1F800C0BCF1FF0F34DD54686D
:100A800000202EE000F1080C4FF0010808FA0CF3EA
:100A9000B1F800C00CEA03069E4221D183004FF05A
:100AA0000F0C0CFA03F7BC4305FA03FC4CEA0404F0
:100AB00091F803C0BCF1280F05D100F1080C08FA29
:100AC0000CF8C2F8148091F803C0BCF1480F07D1AC
:100AD00000F1080C4FF0010808FA0CF8C2F8108079
:100AE000401C0828CED35460BDE8F08141617047B6
:100AF0000161704710B54FF48060FFF7E1FE30B13F
:100B00000120094908708002FFF71AFE0AE04FF43D
:100B10000070FFF7D5FE28B101200449087040029B
:100B2000FFF70EFE10BD0000480000204700002027
:100B300002E002A001F082FBFBE700000D0ABDF815
:100B4000C8EBD3B2BCFEB4EDCEF3D6D0B6CF0D0A0F
:100B50000000000000B58BB01C2104A8FFF70BFBC0
:100B600000200190029003905A2100F09DF95A2133
:100B7000012000F099F94FF4FA6002F00DF800211D
:100B8000084600F091F90021012000F08DF94FF4A2
:100B9000FA6002F001F8B421002000F085F9B421D8
:100BA000012000F081F94FF4FA6001F0F5FF0BB07D
:100BB00000BD00BFFEE7704710B54FF4A06000F025
:100BC00039F810BD70B5002100230F22C47804B39A
:100BD000154C246804F4E064C4F5E064210AC1F112
:100BE0000403CA40447804FA03F184781440214392
:100BF00009010E4C0678A155047804F01F05012464
:100C0000AC4005786D11AD0005F1E025C5F8004157
:100C100009E0047804F01F050124AC40044D067877
:100C2000761145F8264070BD0CED00E000E400E0D0
:100C300080E100E002490143024A11607047000070
:100C40000000FA050CED00E07047000029B1064AEB
:100C500052690243044B5A6104E0034A52698243D9
:100C6000014B5A61704700000010024029B1064A4A
:100C7000D2690243044BDA6104E0034AD269824339
:100C8000014BDA61704700000010024029B1064AAA
:100C900012690243044B1A6104E0034A1269824359
:100CA000014B1A61704700000010024029B1064A4A
:100CB00092690243044B9A6104E0034A92698243B9
:100CC000014B9A61704700000010024029B1064AAA
:100CD000D2680243044BDA6004E0034AD2688243DC
:100CE000014BDA60704700000010024030B500216F
:100CF0000022002400232D4D6D6805F00C0121B168
:100D0000042905D0082923D105E0294D056022E0FA
:100D1000274D05601FE0254D6D6805F47012234DC9
:100D20006D6805F48034022505EB92421CB9214D13
:100D3000554305600BE01D4D6D6805F400351DB190
:100D40001C4D5543056002E0194D5543056002E016
:100D5000174D056000BF00BF144D6D6805F0F00130
:100D60000909154D6B5C0568DD4045600F4D6D68E8
:100D700005F4E061090A104D6B5C4568DD40856053
:100D80000A4D6D6805F46051C90A0B4D6B5C4568EE
:100D9000DD40C560054D6D6805F44041890B074D88
:100DA0006B5CC568B5FBF3F5056130BD0010024012
:100DB00000127A0000093D001400002024000020E9
:100DC00010B505220C21002000F0D6F800224FF4C7
:100DD0008051024800F076F910BD00000008014083
:100DE00008B501210420FFF761FF4FF40060ADF862
:100DF000000010208DF8030003208DF802006946E2
:100E00000448FFF7E8FD00224FF40061014800F0BC
:100E100059F908BD0008014008B501211020FFF76D
:100E200045FF4FF47070ADF8000010208DF80300FE
:100E300003208DF8020069461A48FFF7CCFD012215
:100E40004021184800F03EF901228021154800F0A9
:100E500039F901221102134800F034F9012251023C
:100E6000104800F02FF9472144F6206000F0A8FB5D
:100E7000002244F62061012000F035F9002244F6FA
:100E80002061022000F02FF9002244F620610320A7
:100E900000F029F9002244F62061042000F023F933
:100EA00008BD00000010014070B504460D46002D3D
:100EB00001DBB42D01DDFF2070BD1CB9284600F018
:100EC0006FFA28E0012C03D1284600F0A1FA22E0B5
:100ED000022C03D1284600F08DFA1CE0032C03D12C
:100EE000284600F04FFA16E0042C03D1284600F003
:100EF0003BFA10E0052C03D1284600F06DFA0AE019
:100F0000062C03D1284600F059FA04E0072C02D140
:100F1000284600F01BFA0020CEE710B5472144F622
:100F2000206000F0C5FB4B2244F62061052000F054
:100F30001BF94B2244F62061062000F015F94B22E4
:100F400044F62061072000F00FF94B2244F620619F
:100F5000082000F009F9472144F6206000F030FC39
:100F60004B2244F62061092000F03CF910BD10B579
:100F700000F060FF10BD00002DE9F84304460D4667
:100F800016464F4F4FF001084FF01009072C28D29A
:100F9000DFE804F004090E13181D220001210420CB
:100FA000FFF784FE1EE001210820FFF77FFE19E015
:100FB00001211020FFF77AFE14E001212020FFF725
:100FC00075FE0FE001214020FFF770FE0AE00121CD
:100FD0008020FFF76BFE05E001210802FFF766FEA7
:100FE00000E000BF00BF102D39D2DFE805F0080B8C
:100FF0000E1114171A1D202326292C2F32354FF0DD
:1010000001082DE04FF002082AE04FF0040827E025
:101010004FF0080824E04FF0100821E04FF02008BE
:101020001EE04FF040081BE04FF0800818E04FF43E
:10103000807815E04FF4007812E04FF480680FE0FC
:101040004FF480580CE04FF4805809E04FF40058FA
:1010500006E04FF4804803E04FF4004800E000BF92
:1010600000BF082E1DD2DFE806F004070A0D10139A
:1010700016194FF0000915E04FF0040912E04FF087
:1010800028090FE04FF048090CE04FF0140909E07F
:101090004FF0100906E04FF01C0903E04FF018096B
:1010A00000E000BF00BFADF800808DF80390032082
:1010B0008DF8020069463846FFF78DFCBDE8F883DD
:1010C0000008014070B505460E461446012C04D1B7
:1010D00031462846FFF70CFD04E01CB9314628468E
:1010E000FFF704FD70BDFEB505460C461646A0B2DE
:1010F000ADF804004720ADF800000120ADF806006F
:101100000020ADF8020069464FF0804000F06EFD0F
:101110004FF47A70B4FBF0F006FB104087B2012D5B
:1011200006D0022D0AD0032D0ED0042D18D111E0C7
:1011300039464FF0804000F050FD12E039464FF044
:10114000804000F04CFD0CE039464FF0804000F04C
:1011500048FD06E039464FF0804000F044FD00E0D5
:1011600000BF00BFFEBD0000FEB505460C4616469A
:10117000A0B2ADF804004720ADF800000120ADF8A2
:1011800006000020ADF802006946154800F02EFD6B
:101190004FF47A70B4FBF0F006FB104087B2052DD7
:1011A00006D0062D09D0072D0CD0082D14D10EE045
:1011B00039460B4800F011FD0FE03946084800F0B1
:1011C0000EFD0AE03946064800F00BFD05E0394601
:1011D000034800F008FD00E000BF00BFFEBD0000B6
:1011E00000040040FEB505460C461646A0B2ADF818
:1011F00004004720ADF800000120ADF806000020F3
:10120000ADF802006946154800F0F0FC4FF47A7022
:10121000B4FBF0F006FB104087B2012D06D0022D82
:1012200009D0032D0CD0042D14D10EE039460B4803
:1012300000F0D3FC0FE03946084800F0D0FC0AE08B
:101240003946064800F0CDFC05E03946034800F079
:10125000CAFC00E000BF00BFFEBD00000008004067
:10126000704710B500F002F810BD00000CB500206A
:10127000019000903348006840F4803031490860A4
:1012800000BF3048006800F4003000900198401C16
:101290000190009818B90198B0F5A06FF1D12948D4
:1012A000006800F4003010B10120009001E000203F
:1012B00000900098012843D12348006840F01000B6
:1012C000214908600846006820F0030008600846CD
:1012D000006840F0020008601A48406819494860F8
:1012E0000846406848600846406840F480604860AE
:1012F0000846406820F47C1048600846406840F486
:10130000E81048600846006840F08070086000BF40
:101310000C48006800F000700028F9D009484068C7
:1013200020F00300074948600846406840F002008A
:10133000486000BF0348406800F00C000828F9D15D
:101340000CBD0000001002400020024070B50446B1
:101350000025204601F0DCFB05462A4644F62061C4
:101360000C20FFF701FF70BD70B504460025204634
:1013700001F0CEFB05462A4644F620610920FFF71E
:10138000F3FE70BD70B504460025204601F0C0FB99
:1013900005462A4644F620610820FFF7E5FE70BDA9
:1013A00070B504460025204601F0B2FB05462A46EA
:1013B00044F620610520FFF7D7FE70BD70B50446E6
:1013C0000025204601F0A4FB05462A4644F620618C
:1013D0000B20FFF7C9FE70BD70B5044600252046FE
:1013E00001F096FB05462A4644F620610A20FFF7E5
:1013F000BBFE70BD70B504460025204601F088FB99
:1014000005462A4644F620610720FFF7ADFE70BD71
:1014100070B504460025204601F07AFB05462A46B1
:1014200044F620610620FFF79FFE70BD042808D116
:101430004FF0E021096941F004014FF0E022116111
:1014400007E04FF0E021096921F004014FF0E022AC
:10145000116170477047000010B51348006840F0F4
:1014600001001149086008464068104908400E49CB
:101470004860084600680E4908400B490860084665
:10148000006820F4802008600846406820F4FE00D0
:1014900048604FF41F008860FFF7E3FE4FF00060E4
:1014A0000449086010BD0000001002400000FFF871
:1014B000FFFFF6FE08ED00E07FB505460C46012172
:1014C000C802FFF7F3FBADF80850ADF80440012067
:1014D000ADF80A000020ADF8060001A90D4800F0A3
:1014E00085FB012211460B4800F013FA19208DF8F4
:1014F000000000208DF8010003208DF8020001207B
:101500008DF803006846FFF75DFB0121014800F0FC
:10151000E5F97FBD002C014010B50121214800F004
:10152000DAF921480068401C1F4908600846006835
:10153000B0F57A7F01D3002008601B48007800F0E6
:10154000010010B9012019490870174800680521E9
:10155000B0FBF1F201FB120010B901201449087030
:10156000114800680A21B0FBF1F201FB120010B92A
:101570000120104908700C4800683221B0FBF1F2DC
:1015800001FB120010B901200B49087006480068E1
:101590006421B0FBF1F201FB120010B901200749F0
:1015A000087010BD002C0140280000202C000020F5
:1015B0002D0000202E0000202F00002030000020F1
:1015C00030B589B005460C4601210846FFF74EFBB1
:1015D00001210420FFF76AFB0F20ADF8200018203E
:1015E0008DF8230003208DF8220008A92F48FFF76B
:1015F000F2F9ADF81850ADF814400120ADF81A001A
:101600000020ADF8160005A94FF0804000F0EEFA7A
:101610007020ADF804000120ADF806000020ADF800
:101620000A00ADF80C0001A94FF0804000F07AF9F3
:1016300001A94FF0804000F0CBF901A94FF08040A4
:1016400000F026FA01A94FF0804000F07BFA01215A
:10165000880700F04FF90821C80600F0AFF908210B
:10166000C80600F007FA0821C80600F061FA082150
:10167000C80600F0A5FA0121880700F020F96421CE
:10168000080700F0AAFA6421080700F0A8FA64210C
:10169000080700F0A6FA6421080700F0A4FA012167
:1016A000880700F01BF909B030BD000000080140B8
:1016B00030B589B005460C4601210220FFF7D6FA65
:1016C00001210820FFF7F2FA01210420FFF7EEFACA
:1016D000C020ADF8200018208DF8230003208DF8DD
:1016E000220008A93348FFF776F90320ADF820005F
:1016F00018208DF8230003208DF8220008A92E4819
:10170000FFF769F9ADF81850ADF814400120ADF8B5
:101710001A000020ADF8160005A9284800F066FA66
:101720007020ADF804000120ADF806000020ADF8EF
:101730000A00ADF80C0001A9204800F0F3F801A957
:101740001E4800F045F901A91C4800F0A1F901A9C3
:101750001A4800F0F7F90121184800F0CBF80821E9
:10176000164800F02BF90821144800F083F90821ED
:10177000124800F0DDF90821104800F021FA01219B
:101780000E4800F09CF864210C4800F026FA642111
:101790000A4800F024FA6421084800F022FA642183
:1017A000064800F020FA0121044800F097F809B03B
:1017B00030BD000000080140000C01400004004062
:1017C00030B589B005460C4601210420FFF74EFADA
:1017D00001210820FFF76AFA4FF47070ADF820007D
:1017E00018208DF8230003208DF8220008A92D4829
:1017F000FFF7F1F8ADF81850ADF814400120ADF83E
:101800001A000020ADF8160005A9274800F0EEF9EF
:101810007020ADF804000120ADF806000020ADF8FE
:101820000A00ADF80C0001A91F4800F07BF801A9DF
:101830001D4800F0CDF801A91B4800F029F901A9C5
:10184000194800F07FF90121174800F053F80821EA
:10185000154800F0B3F80821134800F00BF90821EF
:10186000114800F065F908210F4800F0A9F901219D
:101870000D4800F024F864210B4800F0AEF9642113
:10188000094800F0ACF96421074800F0AAF9642186
:10189000054800F0A8F90121034800F01FF809B03D
:1018A00030BD0000000C01400008004010B5FFF7FB
:1018B00083F940F60F612720FFF7FEFD10BD21B12F
:1018C000028842F08002028004E002884FF67F73B3
:1018D0001A4002807047CA430282704721B10288D1
:1018E00042F00102028004E002884FF6FE731A40C3
:1018F0000280704731B1B0F8442042F40042A0F8B1
:10190000442005E0B0F84420C2F30E02A0F84420C1
:1019100070471AB183890B43838102E083898B432B
:101920008381704770B5002400220023058C4FF698
:10193000FE7635400584028C8388048B4FF68F75C4
:101940002C40B51E2C400D882C43751E2A400D8955
:101950002A434D882A43144DA8420BD0134DA84268
:1019600008D0134DA84205D0124DA84202D0124D06
:10197000A84213D14FF6F7752A404D892A434FF6F6
:10198000FB752A408D882A434FF6FF652B404FF6A2
:10199000FF552B408D892B43CD892B4383800483B6
:1019A000CD888586028470BD002C01400034014042
:1019B0000040014000440140004801400A46002127
:1019C000018B4FF6F77319401143018370470000F4
:1019D00070B5002400220023058C4FF6EF763540C9
:1019E0000584028C8388048B48F6FF752C404FF6E3
:1019F000FF452C400D884FF6FF7606EA05252C435F
:101A00004FF6DF752A400D8906EA05152A434D88F1
:101A100006EA05152A43154DA84202D0144DA842E6
:101A20001DD14FF67F752A404D894FF6FF7606EAA5
:101A300005152A434FF6BF752A408D8806EA05151D
:101A40002A434FF6FF352B404FF2FF752B408D890F
:101A500006EA85052B43CD8906EA85052B4383805D
:101A60000483CD880587028470BD0000002C0140EE
:101A7000003401400A460021018B4FF2FF731940E8
:101A80004FF6FF7303EA02231943018370470000F6
:101A900070B5002400220023058C4FF6FF66354008
:101AA0000584028C8388848B4FF68F752C404FF60B
:101AB000FC752C400D882C434FF6FF552A400D89AC
:101AC0004FF6FF7606EA05252A434D8806EA0525E6
:101AD0002A43154DA84202D0144DA8421DD14FF201
:101AE000FF752A404D894FF6FF7606EA05252A4301
:101AF0004FF6FF352A408D8806EA05252A434EF623
:101B0000FF752B404DF6FF752B408D8906EA0515B4
:101B10002B43CD8906EA05152B4383808483CD882A
:101B20008587028470BD0000002C01400034014014
:101B30000A460021818B4FF6F773194011438183C8
:101B40007047000070B5002200230024058C4EF67B
:101B5000FF7635400584038C8488828B48F6FF75B8
:101B60002A404FF6FF452A400D884FF6FF7606EAD9
:101B700005252A434DF6FF752B400D8906EA0535EC
:101B80002B434D8806EA05352B430B4DA84202D066
:101B90000A4DA84208D14BF6FF752C408D894FF6AF
:101BA000FF7606EA85152C4384808283CD88A0F8D1
:101BB0004050038470BD0000002C014000340140FF
:101BC0000A460021818B4FF2FF7319404FF6FF73D5
:101BD00003EA022319438183704781867047018796
:101BE000704781877047A0F8401070470022028834
:101BF0001D4B98420ED01D4B98420BD0B0F1804F38
:101C000008D01B4B984205D01A4B984202D01A4B71
:101C1000984204D14FF68F731A404B881A43174BE2
:101C2000984207D0164B984204D04FF6FF431A4013
:101C3000CB881A4302808B8883850B8803850A4BE7
:101C400098420BD0094B984208D00E4B984205D0D1
:101C50000D4B984202D00D4B984201D10B7A03866E
:101C60000123838270470000002C014000340140B2
:101C70000004004000080040000C0040001000403C
:101C80000014004000400140004401400048014071
:101C900010B586B00446012144F20400FFF706F8AF
:101CA000234800F09DF94FF40070ADF814000320B4
:101CB0008DF8160018208DF8170005A91D48FEF7AD
:101CC0008AFE4FF48060ADF8140004208DF81700F0
:101CD00005A91848FEF77FFE25208DF80000032097
:101CE0008DF801008DF8020001208DF80300684690
:101CF000FEF768FF01940020ADF80800ADF80A0077
:101D0000ADF80C00ADF810000C20ADF80E0001A9E4
:101D1000074800F00FFA012240F22551044800F074
:101D2000E4F90121024800F045F906B010BD0000B9
:101D3000003801400008014010B586B0044601217A
:101D40000420FEF7B3FF01214804FEF78FFF0420B3
:101D5000ADF8140018208DF8170003208DF8160038
:101D600005A91248FEF737FE0820ADF8140004203C
:101D70008DF8170005A90D48FEF72DFE01940020EF
:101D8000ADF80800ADF80A00ADF80C00ADF8100091
:101D90000C20ADF80E0001A9054800F0CBF9012197
:101DA000034800F007F906B010BD0000000801402C
:101DB0000044004010B586B0044601210820FEF71B
:101DC00075FF01218804FEF751FF4FF48060ADF8E4
:101DD000140018208DF8170003208DF8160005A9AF
:101DE0001248FEF7F8FD4FF40060ADF8140004202F
:101DF0008DF8170005A90D48FEF7EDFD01940020B0
:101E0000ADF80800ADF80A00ADF80C00ADF8100010
:101E10000C20ADF80E0001A9054800F08BF9012156
:101E2000034800F0C7F806B010BD0000000C0140E8
:101E30000048004010B54FF41650FFF729FF4FF44B
:101E40001650FFF779FF4FF41650FFF7B3FFFEF778
:101E500075FD10BD10B540F225514C4800F01BF93E
:101E6000002870D0494800F0D1F94949494A127810
:101E7000885448480078312802DD00204549087020
:101E800044480078401C434908704348007830B10A
:101E9000012815D0022826D0032874D146E000205E
:101EA0003E4908703A480078FF2805D13A48007842
:101EB000401C3949087002E000203649087063E090
:101EC00000203649087032484078012805D1324850
:101ED0000078401C3049087004E000202D4908704B
:101EE0002D49087050E000202C49087029480078DE
:101EF00004281AD12648C0782949087024488078D7
:101F0000097841EA0020C01D26490870084600787B
:101F1000312805DD00201F4908701F49087004E0C2
:101F20001D480078401C1C4908702DE000201B490A
:101F30000870184800781B490978884221D1002090
:101F4000194908700DE020E0114817490978405CF4
:101F50001649154A1278885413480078401C1249D3
:101F60000870114800780F4909788842ECDB00209E
:101F7000084908700B4908700749087001200C498E
:101F8000087001E0FFE700BF00BF10BD003801404E
:101F9000820000203E00002041000020430000207D
:101FA000440000204000002045000020B400002034
:101FB0003C00002021B1828942F40052828104E079
:101FC00082894DF6FF731A40828170471AB1838A65
:101FD0000B43838202E0838A8B4383827047000035
:101FE00010B504462048844209D101218803FEF738
:101FF0006DFE00214FF48040FEF768FE32E01B4882
:10200000844209D101214804FEF740FE00214FF42B
:102010000030FEF73BFE25E01548844209D101213E
:102020008804FEF733FE00214FF48020FEF72EFED9
:1020300018E01048844209D10121C804FEF726FEA9
:1020400000214FF40020FEF721FE0BE00A488442F5
:1020500008D101210805FEF719FE00214FF4801078
:10206000FEF714FE10BD000000380140004400409F
:1020700000480040004C0040005000400246002054
:10208000B1F5007F00D100BF13880B400BB10120D8
:1020900000E00020704770B50246002400230025B0
:1020A000002040F66A16B14200D100BFC1F34215CC
:1020B00001F01F03012606FA03F3012D02D19689D0
:1020C000334006E0022D02D1168A334001E0968AA1
:1020D00033400C12012606FA04F41688344013B17A
:1020E0000CB1012000E0002070BDF0B503460024D3
:1020F00000260025002040F66A17B94200D100BF33
:102100001846C1F3421401F01F06012707FA06F52D
:10211000012C01D10C3004E0022C01D1103000E080
:1021200014301AB107682F43076002E00768AF4315
:102130000760F0BD2DE9F04786B005460E46002445
:10214000A24600BFA1460027B08900B100BF2F46BC
:102150002C8A4CF6FF700440F08804432C82AC8932
:102160004EF6F3100440B088318908437189084362
:102170000443AC81AC8A4FF6FF400440B08904436D
:10218000AC8201A8FEF7B2FD1F48874202D1DDF8FC
:1021900010A001E0DDF80CA0A88900F4004040B1D7
:1021A0000AEBCA0000EB0A1031684900B0FBF1F8F5
:1021B00007E00AEBCA0000EB0A1031688900B0FBA7
:1021C000F1F86420B8FBF0F004012009642101FB60
:1021D0001089A88900F4004040B1322000EBC9000A
:1021E000B0FBF1F000F00700044308E0322000EB00
:1021F00009106421B0FBF1F000F00F0004432C81C2
:1022000006B0BDE8F087000000380140014688882C
:10221000C0F308007047C1F308028280704710B510
:102220004FF40050FEF74CFB28B1FEF783FA4FF451
:102230000050FEF785FA10BD00BFFEE70FB4054B56
:1022400010B503A9044A029800F0CAF810BC5DF862
:1022500014FB0000E52B00084C00002002E008C839
:10226000121F08C1002AFAD170477047002001E010
:1022700001C1121F002AFBD1704700002DE9FF5F4A
:10228000DDE90220010DDDF838B0024318D044F634
:102290001050A1F2FF3141430D140F98012820D0B6
:1022A000A5EB0B00401C5FEA000A4FF00004474E0C
:1022B000DFF81C91A046504616D5CAF1000728E069
:1022C0000F98012443A2012808D0002100980F9BF9
:1022D000C0E90021C0E90243BDE8FF9F6FEA0B019E
:1022E000F4E7CBF10000DEE7074612E0F80707D07D
:1022F0002246334640464946FDF7EFFF8046894671
:102300002246334610461946FDF7E7FF04460E46BF
:102310007F10002FEAD1DDE90201BAF1000F424639
:102320004B4602DAFDF7D9FF01E0FEF748F8044614
:102330000E460022284BFEF7DBF803D84FF0FF30A3
:10234000014607E00022254B20463146FDF71EFFDF
:10235000FEF7BBF9102409E0002C0ADB0A22002357
:10236000FEF7F4F8019B30321A55641E50EA010260
:10237000F2D1641C019AC4F1110314440F9A012A8A
:1023800003D0012208430DD10AE0084304D0002005
:102390004FF0110B0F9080E7A3EB0B056D1E0DE0C6
:1023A0005B4504DD4FF0000205F1010504E003DAAE
:1023B0004FF00002A5F10105002AECD000980F991A
:1023C000C0E90231C0E9004586E700000000244072
:1023D0000000F03F300000000000F0430000E03F4C
:1023E0002DE9FF4F95B09B468946064600250FE232
:1023F000252877D100242746F84A0121059400E0DA
:10240000044316F8013F203B01FA03F01042F7D1D4
:1024100030782A2811D06FF02F033078A0F13002E5
:10242000092A16D8059A44F0020402EB820203EB53
:1024300042021044761C0590EFE759F8042B0592F0
:10244000002A03DA504244F40054059044F0020498
:10245000761C30782E2816D116F8010F44F00404AB
:102460002A280DD06FF02F023078A0F13003092B0D
:1024700009D807EB870302EB4303C718761CF3E781
:1024800059F8047B761C30786C280FD006DC4C2879
:1024900017D068280DD06A2814D104E0742810D011
:1024A0007A280FD10DE044F400140AE044F48014BB
:1024B00001E044F440147278824202D104F58014A1
:1024C000761C761C307866280BD013DC582877D021
:1024D00009DC002875D04528F6D04628F4D04728D6
:1024E0001AD19DE118E0632835D0642879D0652899
:1024F00012D195E1702873D008DC6728F1D06928E3
:102500006FD06E280DD06F2806D1B5E073282CD07F
:10251000752875D0782874D05A46179990476D1C45
:1025200075E1C4F30250022809D003280DD0D9F870
:10253000001004280DD00D6009F1040967E1D9F8F5
:102540000010EA17C1E90052F6E7D9F800100D8033
:10255000F2E70D70F0E719F8041B8DF80010002069
:102560008DF80100EA46012003E059F804AB4FF072
:10257000FF3061074FF0000102D40DE008F10101C6
:102580008846B9420FDA8045F8DB1AF808100029AE
:10259000F4D108E008F1010188468142FADB1AF81B
:1025A00008100029F6D105985B46A0EB08072146E4
:1025B0003846179A00F094FA284400EB080507E023
:1025C0004DE029E10DE01AF8010B5A4617999047A2
:1025D000B8F10108F7D25B4621463846179A13E155
:1025E00042E00A220092C4F302524FF0000A022A8B
:1025F00008D059F804CB032A4FEAEC710AD00DE059
:1026000029E02AE009F1070121F00702F2E802C1FE
:10261000914609E00FFA8CFC4FEAEC71042A03D1D1
:102620004FFA8CFC4FEAEC71002907DA0A460021C8
:10263000DCF1000C61EB02012D2202E0220504D541
:102640002B228DF80420012203E0E20701D0202292
:10265000F7E7904659E00A2102E010220DE0102130
:102660004FF0000A00910BE010224FF0000A44F0F6
:1026700004040827009203E008224FF0000A0092A9
:10268000C4F30252022A05D059F804CB0021032AD0
:1026900008D009E009F1070121F00702F2E802C1C0
:1026A000914605E01FFA8CFC042A01D10CF0FF0CC6
:1026B0004FF00008220728D5702806D0009B83F031
:1026C000100353EA0A0305D00EE040228DF80420DF
:1026D000012208E05CEA010206D030228DF80420D5
:1026E0008DF8050002229046009B83F0080353EA10
:1026F0000A030AD15CEA010201D1620705D5302242
:102700008DF804204FF001087F1E582804D034A013
:1027100003900EA802900DE036A0F9E753466046FC
:10272000009AFDF713FF84460398825C0298401ECE
:10273000029002705CEA0100F0D1029806A9081A22
:1027400000F1200A600702D524F4803400E001275C
:10275000574502DDA7EB0A0000E0002000EB0A016C
:10276000009005984144401A0590E00306D45B466A
:102770002146179A059800F0B3F90544002706E0B2
:1027800001A85A46C05D179990476D1C7F1C4745AC
:10279000F6DBE0030CD55B462146179A059800F05E
:1027A0009FF9054404E030205A46179990476D1C64
:1027B0000099481E00900029F5DC08E00298029973
:1027C0005A460078491C0291179990476D1CBAF13E
:1027D0000001AAF1010AF1DC65E10000092801000D
:1027E0003031323334353637383961626364656687
:1027F0000000000030313233343536373839414249
:10280000434445460000000000F058F90544761C9A
:10281000307800287FF4ECAD19B02846BDE8F08F81
:10282000620700D4062709F1070222F0070CFCE832
:102830000223E14603F000485FEA080C02D00FF2E1
:10284000702C0DE05FEA045C02D50FF2682C07E003
:102850005FEAC47C02D00FF2602C01E0AFF2700C92
:102860004FF0FF3823F00043CDF850C065280CD05E
:1028700006DC452809D046281DD047283DD13DE03B
:10288000662818D067287ED138E00021112F01DB9F
:10289000112000E0781CCDE9000106A90EA8FFF781
:1028A000EDFCDDE90F010E9A03910021009207F182
:1028B000010A04914DE04FF000400097CDE901106E
:1028C00006A90EA8FFF7DAFCDDE90F0203920E9BC2
:1028D00011990022DDF80CA00093049211B9791C23
:1028E00000EB010AB7EB0A0004D4C0F1FF3007F196
:1028F000010A0490AAEB0700019044E0012F00DADE
:1029000001270021112F01DD112000E03846CDE91B
:10291000000106A90EA8FFF7B1FCDDE90F010E9A30
:102920000391002104910092BA4621070CD4039927
:10293000514500DA8A46BAF1010F05DD009AAAF185
:102940000101515C302908D0B84202DA10F1040FBD
:1029500006DA0121CDE9011015E0AAF10101E9E74C
:10296000002805DC049901440491AAEB000102E06F
:10297000411C514500DD8A460499401A401C0190D3
:102980004FF000400290200704D40198504501DB2D
:10299000CDF8048000208DF84F0002980DF14F070C
:1029A000B0F1004F25D02B200E9002984FF0020876
:1029B00000280CDA404202902D200E9007E00A21F8
:1029C0000298FDF7ADFD3031029007F8011DB8F116
:1029D0000001A8F10108F2DC02980028EFD1791E6D
:1029E0000E980870307800F0200040F0450007F89D
:1029F000020D12A8C01B00F107081498007800B15E
:102A0000012000EB0A01019801EBE07105984144B7
:102A1000401A401E0590E00306D45B462146179AF3
:102A2000059800F05DF805441498007818B15A46EE
:102A3000179990476D1CE00324D55B462146179AF1
:102A4000059800F04DF805441CE00498002807DBC9
:102A5000DDE90301884203DD0098405C179901E03D
:102A6000179930205A469047049805F10105401CFB
:102A700004900198401E019004D12E205A461799C7
:102A800090476D1CBAF10001AAF1010ADDDC05E0F6
:102A900017F8010B5A46179990476D1CB8F10001C1
:102AA000A8F10108F4DC5B462146179A0598ABE6CD
:102AB0002D0000002B000000200000002DE9F04157
:102AC000044600251E461746880404D405E039460E
:102AD0002020B0476D1C641EF9D52846BDE8F08162
:102AE0002DE9F041044600251E469046C80301D555
:102AF000302700E02027880404D505E04146384609
:102B0000B0476D1C641EF9D52846BDE8F081000071
:102B10002DE9F05F82464FF0000B5046FDF7BEFCFA
:102B200080460022074BFDF7D8FB06460022064BE5
:102B3000FDF72CFB0446FDF7C2FC00F0FF0B5846E6
:102B4000BDE8F09F0000E03F0080414010B56FF00D
:102B50000400FEF76BFC0B4800680B49B0FBF1F07A
:102B60000A4908700846007800EB4001C1EBC0102C
:102B70004FF6FF7101EAC0000549088001200549B0
:102B8000086010BD0000002000127A003400002010
:102B900036000020380000200146114A12684FF02C
:102BA000E0235A6100229A611A46126942F001023A
:102BB0001A6100BF4FF0E022106900F001021AB163
:102BC00000F48032002AF5D04FF0E022126922F0A2
:102BD00001024FF0E0231A6100229A617047000061
:102BE0003800002070B504460D46E1B20548FFF7F5
:102BF00012FB00BF40210348FFF740FA0028F9D03C
:102C0000204670BD00380140FFF7A0FFFEF74EFEE2
:102C1000FEF7D6F8FEF7E4F8FEF7FEF8FEF77DF9CA
:102C2000FEF7A5F902E0FDF795FF00BFFBE7000006
:102C3000502C000800000020500000005C2200081A
:102C4000A02C000850000020980400006C2200080E
:102C500000A24A040000000000000000010203047A
:102C60000607080900000000010203040102030432
:102C70000607080902040608000000000000000022
:102C80000000000000000000000000000000000044
:102C90000000000000000000000000000000000034
:0400000508000131BD
:00000001FF
