:020000040800F2
:100000009018002045010008EF0A0008CD0A0008FA
:10001000ED0A000821070008651C00080000000028
:10002000000000000000000000000000DD0F0008DC
:100030003D09000800000000690B0008C11000081D
:100040005F0100085F0100085F0100085F01000810
:100050005F0100085F0100085F0100085F01000800
:100060005F0100085F0100085F0100085F010008F0
:100070005F01000823070008270700085F01000848
:100080005F0100085F0100085F0100085F010008D0
:100090005F0100085F0100085F0100085F010008C0
:1000A0005F010008751100085F0100085F0100088A
:1000B0005F0100085F0100085F0100085F010008A0
:1000C0005F0100085F0100085F0100085F01000890
:1000D0005F010008B11900085F0100085F01000816
:1000E0005F0100085F0100085F0100085F01000870
:1000F0005F0100085F0100085F0100085F01000860
:100100005F0100085F0100085F0100085F0100084F
:100110005F0100085F0100085F0100085F0100083F
:100120005F0100085F0100085F0100085F0100082F
:10013000DFF80CD000F0E2FA00480047352600084E
:10014000901800200648804706480047FEE7FEE773
:10015000FEE7FEE7FEE7FEE7FEE7FEE7FEE7FEE777
:10016000C510000831010008D2B201E000F8012BEF
:10017000491EFBD270470022F6E710B513460A4627
:1001800004461946FFF7F0FF204610BD2DE9FE4F4B
:10019000804681EA0300C00F0C46009021F0004128
:1001A00023F00045B8EB0200A94105D240462146A4
:1001B00090461C460B46024623F00040104347D0B1
:1001C000270DC7F30A00C3F30A510290401A0190A9
:1001D00040286BDAC3F3130040F4801B009892466A
:1001E00020B10023D2EB030A63EB0B0B01985946B5
:1001F000C0F14002504600F0DAF906460D4650467E
:100200005946019A00F0F2F910EB08006141002410
:1002100087EA115284EAE7731A4340D0009A62B326
:10022000019A012A4FEA075215DC001B61EB02011B
:100230004FF0004202EA0752CDE90042001C41F5AE
:10024000801132462B4600F0F2F903B0BDE8F08F82
:1002500040462146F9E7001B61EB0201001C41F515
:10026000801300185B412018A2F5001747EB03012B
:1002700040EAD570B6196D4111E06D084FEA3606B7
:1002800045EAC0754FEA0752001B61EB0201001CF2
:1002900041F5801149084FEA3000001951413246BA
:1002A0002B4603B0BDE8F04F00F0B2B90098012230
:1002B00040000023D0EB020263EBE073009821467C
:1002C0004FEAE074B8EB000061EB0401E9E783F06A
:1002D00000435BE781F0004158E72DE9FE4F81EADA
:1002E000030404F0004421F0004100944FF0000B9F
:1002F00023F0004350EA01045ED052EA03045BD0CD
:10030000C3F30A54C1F30A552C44A4F2F334019404
:10031000A0FB0254C1F3130141F48011C3F3130392
:1003200043F4801301FB024400FB034E840A970A46
:1003300044EA815447EA8357A4FB076802958D0A73
:1003400005FB07854FEA932C04FB0C542705029DFF
:100350004FEA065847EA1637B5EB08056EEB070C6F
:10036000870E920E47EA811742EA8312A7FB020129
:10037000B6EB0B0164EB00042B0D43EA0C335E1863
:1003800044EB1C50DA465146E7FB0201C5F3130467
:100390004FEA0B3343EA14534FEA0432019C43EA19
:1003A0000603A4F10C040294009CCDE900B400F013
:1003B0003EF903B0BDE8F08F00200146F9E72DE9D2
:1003C000F04D81EA030404F0004B21F0004514468F
:1003D0004FF0000A23F0004150EA050220D054EA11
:1003E00001021DD0C5F30A570246C5F31303C1F33A
:1003F0001300C1F30A5640F4801543F48013A7EBB1
:100400000608101BD64608F2FD3873EB050002D330
:1004100008F1010801E092185B41B8F1000F03DA1E
:1004200000200146BDE8F08D00204FF48011064603
:1004300084460EE0171B73EB050705D3121B63EB15
:10044000050306434CEA010C49084FEA30009218B4
:100450005B4150EA0107EDD152EA030012D082EA73
:10046000040083EA0501084305D0101BAB4106D206
:100470000122002306E000224FF0004302E06FF06B
:10048000010253101AEB06004CEB085110EB0A0066
:1004900041EB0B01BDE8F04D00F0BAB80EB5C10F4D
:1004A00080EAE0700844CA07002140F233438DE837
:1004B0000E000A460B4600F0BAF803B000BDC1F3C7
:1004C0000A5210B5C1F3130140F2FF3341F4801119
:1004D0009A4201DA002010BD40F233439A42A2F260
:1004E000334203DC524200F071F810BD904010BD61
:1004F00030B5041E71F1000404DB4FF000444042AB
:1005000064EB0101141E73F1000405DB1C464FF07F
:100510000043524263EB0403994208BF904230BD4E
:1005200030B50B46014600202022012409E021FAC3
:1005300002F59D4205D303FA02F5491B04FA02F5C0
:100540002844151EA2F10102F1DC30BD2DE9F05F57
:100550000546002092469B46884606468146402432
:100560001BE0284641464746224600F02FF85346F6
:100570005A46C01A914110D311461846224600F03F
:1005800016F82D1A67EB01084F462246012000217C
:1005900000F00DF817EB00094E41201EA4F10104F4
:1005A000DFDC484631462A464346BDE8F09F202A14
:1005B00004DB203A00FA02F1002070479140C2F1BA
:1005C000200320FA03F3194390407047202A04DBEC
:1005D000203A21FA02F00021704721FA02F3D040BC
:1005E000C2F120029140084319467047202A06DBD9
:1005F000CB17203A41FA02F043EAE07306E041FAF1
:1006000002F3D040C2F120029140084319467047DE
:1006100010B5141E73F1000408DA401C41F100010A
:1006200092185B411A4301D120F0010010BD2DE961
:10063000F04D92469B4611B1B1FA81F202E0B0FA58
:1006400080F220329046FFF7B2FF04460F4640EAA0
:100650000A0041EA0B0153465A46084313D011469B
:1006600053EA010019D0C8F140025046FFF7AEFF2F
:1006700005460E46504659464246FFF798FF084346
:1006800005D0012004E020463946BDE8F08D002069
:10069000054346EAE0762C4337430A986305E40AAB
:1006A000A0EB08000022FD0A44EA47540A3002D5B4
:1006B00000200146E9E7010510196941DDE9084517
:1006C00000196941BDE8F04DA2E7C1F30A52C1F338
:1006D000130140F2FF3341F480119A4202DA002004
:1006E0000146704740F233439A42A2F2334202DCA1
:1006F0005242FFF76BBFFFF75ABF0000064C074D91
:1007000006E0E06840F0010394E8070098471034E1
:10071000AC42F6D3FFF710FDB8270008D827000831
:10072000FEE700F0B7B901F089BA0000C10002D5B8
:10073000024908607047024948607047040402405B
:10074000000002400029016802D041F0010102E0EE
:100750004FF6FE72114001607047000001684FF6CD
:10076000FE72114001600021016041608160C16042
:100770003149314A0839904203D1486840F00F00AE
:1007800006E02D4A1432904204D1486840F0F0004F
:1007900048607047284A2832904203D1486840F4A4
:1007A0007060F5E7244A3C32904203D1486840F437
:1007B0007040EDE7204A5032904203D1486840F43F
:1007C0007020E5E71C4A6432904203D1486840F447
:1007D0007000DDE7184A7832904203D1486840F053
:1007E0007060D5E7154A111F904203D1086840F0A8
:1007F0000F0006E0114A1432904204D1086840F01C
:10080000F000086070470D4A2832904203D1086812
:1008100040F47060F5E7094A3C32904203D1086821
:1008200040F47040EDE7054A50329042EAD1086842
:1008300040F47020E5E70000080002400804024090
:1008400001460020CA0001D5034A00E0034A1268AD
:100850000A4200D00120704700040240000002401C
:10086000002A026801D00A4300E08A430260704710
:1008700030B5036847F6F07293430C6A8A682243E6
:10088000D1E904452C4322438C692243CC6922439D
:100890004C6A22438C6A22431A430260CA6842604F
:1008A0000A6882604968C16030BD000030B501212E
:1008B0008DB0084600F05AF91D4D2846FFF74EFF4F
:1008C0001C4800901C480190102002900A2000242F
:1008D000CDE903048020CDE905044001CDE90840BD
:1008E0000794694628460A94FFF7C2FF4FF4C06098
:1008F00000F030F90E208DF82C0001218DF82D101C
:100900008DF82E408DF82F100BA800F0F1F8012281
:1009100002212846FFF7A4FF01212846FFF712FF16
:10092000044801228021001F01F0AAF80DB030BD5B
:100930004400024004380140F401002070470000E8
:10094000F0B5CA78002502F00F03D20601D58A78E7
:1009500013430A784FF00F0E12F0FF0F4FF0010211
:100960001CD004680F8802FA05F63740B74211D14F
:100970004FEA850C0EFA0CF724EA070703FA0CF489
:100980003C43CF78282F02D0482F02D002E04661A6
:1009900000E006616D1C082DE4D304600C88FF2C78
:1009A0001ED944685FF0000606F1080702FA07F551
:1009B0000F882F40AF420FD14FEA860C0EFA0CF78A
:1009C000BC4303FA0CF73C43CF78282F00D1456194
:1009D000CF78482F00D10561761C082EE4D34460FF
:1009E000F0BD4161704701617047000010B50448D7
:1009F00001F0D3FEBDE81040024801F097BE0000B0
:100A000078000020E001002030B501218DB00846BB
:100A100000F0ACF81C4800901C480024CDE901040B
:100A20004FF40070CDE903048020CDE905042020B7
:100A3000CDE90740C001CDE90904154D69462846B6
:100A4000FFF716FF4FF4C06000F084F80D208DF81A
:100A50002C0001218DF82D108DF82E408DF82F10CF
:100A60000BA800F045F8012206212846FFF7F8FE02
:100A700001212846FFF766FE034801224021001F9E
:100A800000F0FEFF0DB030BD044800408A02002097
:100A90003000024070B54FF480663046FFF7D0FE5C
:100AA000094D012408B16C7007E04FF40076304620
:100AB000FFF7C6FE002805D02C703046BDE8704018
:100AC000FFF734BE70BD00004400002001A001F01B
:100AD000CBF8FBE70D0ABDF8C8EBD3B2BCFEB4ED12
:100AE000CEF3D6D0B6CF0D0A00000000FEE7704767
:100AF00070B50F23C47801780122F4B1144C246836
:100B0000457804F4E064C4F5E064240AC4F1040602
:100B1000E3408478B5401C402C4301F1E0212301DF
:100B200081F80034007800F01F018A4040098000FD
:100B300000F1E020C0F8002170BD01F01F008240EC
:100B40004809800000F1E020C0F8802170BD00005D
:100B50000CED00E0024908430249086070470000BC
:100B60000000FA050CED00E070470000044A00297F
:100B7000516901D0014300E0814351617047000099
:100B800000100240044A0029D16901D0014300E06D
:100B90008143D1617047000000100240044A0029DF
:100BA000116901D0014300E08143116170470000E9
:100BB00000100240044A0029916901D0014300E07D
:100BC000814391617047000000100240044A0029EF
:100BD000D16801D0014300E08143D160704700003B
:100BE0000010024030B51F494A6812F00C031E4A3B
:100BF00003D0042B01D0082B21D002604A680F23B8
:100C00001A4C03EA1212A35C0268DA4042604B6895
:100C1000072505EA1323E35C22FA03F383604B689C
:100C200005EAD323E35CDA40C2604968032303EAA0
:100C30009131231F595CB2FBF1F1016130BD4A686B
:100C40004B6802F470124FF0020413F4803F04EB7F
:100C5000924202D04B689B0301D5054B00E0024B4A
:100C60005A43CAE70010024000127A001800002020
:100C700000093D0038B501210420FFF79BFF4FF428
:100C80008054ADF8004010208DF803000320064D7D
:100C90008DF8020069462846FFF752FE00222146E1
:100CA000284600F0F1F838BD00080140FFF7ACBE5F
:100CB000002809D10A0005484FF4006102D0002243
:100CC00000F0E2B80122FBE7704700000008014095
:100CD00038B501210420FFF76DFF4FF40064ADF833
:100CE000004010208DF803000320064D8DF802000F
:100CF00069462846FFF724FE00222146284600F0D8
:100D0000C3F838BD0008014038B501211020FFF7B5
:100D100051FF4FF47070ADF8000010208DF8030003
:100D200003201B4C8DF8020069462046FFF708FEA1
:100D300001224021204600F0A7F801228021204610
:100D400000F0A2F801221102204600F09DF80122D5
:100D50005102204600F098F844F6206447212046CE
:100D600000F03EFA00222146012000F096F8002211
:100D70002146022000F091F800222146032000F0D5
:100D80008CF800222146042000F087F838BD0000CE
:100D90000010014010B5B52901D3FF2010BD44F665
:100DA000206470B1012813D0022818D003281DD068
:100DB000042822D0052827D006282CD0072831D097
:100DC00038E0084601F0D6FB0246214605202FE018
:100DD000084601F0CFFB02462146062028E00846DF
:100DE00001F0C8FB02462146072021E0084601F039
:100DF000C1FB0246214608201AE0084601F0BAFB72
:100E000002462146092013E0084601F0B3FB0246E2
:100E100021460A200CE0084601F0ACFB02462146C0
:100E20000B2005E0084601F0A5FB024621460C20F8
:100E300000F068F8002010BD10B544F6206447218A
:100E4000204600F03FFA4B222146052000F05AF8D8
:100E50004B222146062000F055F84B222146072060
:100E600000F050F84B222146082000F04BF84721B3
:100E7000204600F0ABFA21464B22BDE81040092085
:100E800000F076B800F084BD012A03D0002A03D117
:100E9000FFF7A7BDFFF7A7BD7047FEB50546472082
:100EA000ADF80410ADF800000120ADF806000020F8
:100EB0000C46ADF802004FF08046174669463046B2
:100EC00000F048FC4FF47A70B4FBF0F007FB1040E0
:100ED00081B2012D09D0022D0BD0032D0DD0042D90
:100EE00002D1304600F032FCFEBD304600F028FC56
:100EF000FEBD304600F026FCFEBD304600F024FC6E
:100F0000FEBD0000FEB505464720ADF80410ADF863
:100F100000000120ADF806000020144E0C46ADF88C
:100F2000020017466946304600F014FC4FF47A7010
:100F3000B4FBF0F007FB104081B2052D09D0062D5F
:100F40000BD0072D0DD0082D02D1304600F0FEFB4E
:100F5000FEBD304600F0F4FBFEBD304600F0F2FB73
:100F6000FEBD304600F0F0FBFEBD00000004004076
:100F7000FEB505464720ADF80410ADF8000001208D
:100F8000ADF806000020144E0C46ADF802001746DE
:100F90006946304600F0DEFB4FF47A70B4FBF0F0A7
:100FA00007FB104081B2012D09D0022D0BD0032D7B
:100FB0000DD0042D02D1304600F0C8FBFEBD3046F6
:100FC00000F0BEFBFEBD304600F0BCFBFEBD30466F
:100FD00000F0BAFBFEBD00000008004070470000B2
:100FE0000CB50021264801910091026842F480323C
:100FF00002604FF4A063026802F400320092019A8A
:10100000521C0192009A12B9019A9A42F3D10268D5
:10101000920333D5012100911A490A6842F0100267
:101020000A600A6822F003020A600A6842F00202BB
:101030000A604168416041684160416841F48061F3
:101040004160416821F47C114160416841F4E8113C
:101050004160016841F08071016001688901FCD53F
:10106000416821F003014160416841F002014160A3
:101070004168C1F381010229FAD10CBD00910CBD78
:10108000001002400020024010B546215A240220E0
:10109000FFF780FE21460320FFF77CFE2146BDE8D6
:1010A00010400420FFF776BE4FF0E02104280869C5
:1010B00003D020F004000861704740F00400FAE714
:1010C000704700000F4810B5016841F00101016050
:1010D00041680D4A1140416001680C4A11400160AD
:1010E000016821F480210160416821F4FE01416022
:1010F0004FF41F018160FFF773FF05494FF0006057
:10110000086010BD001002400000FFF8FFFFF6FE6F
:1011100008ED00E07FB50C4605460121C802FFF747
:1011200049FDADF80450ADF80040114E01240025F2
:10113000ADF80640ADF802506946304600F00AFBB3
:1011400001221146304600F0E3F919208DF80C0019
:101150008DF80D5003208DF80E008DF80F4003A878
:10116000FFF7C6FC0121304600F0BDF97FBD00004D
:10117000002C014010B50121174800F0B1F91748C3
:101180008168491C8160B1F57A7F01D300218160BB
:10119000CB074FF0010200D102700523B1FBF3F43D
:1011A00003FB141303B942700A23B1FBF3F403FBEE
:1011B000141303B982703223B1FBF3F403FB14134D
:1011C00003B9C2706423B1FBF3F403FB14110029CB
:1011D00000D1027110BD0000002C01402800002049
:1011E00070B50C460546012188B00846FFF7CAFCD9
:1011F00001210420FFF7DEFC0F20ADF81C001820B1
:101200008DF81F0003208DF81E0007A92C48FFF75A
:1012100097FBADF814500125ADF810400024AE073F
:10122000ADF81650ADF8124004A9304600F092FA1D
:101230007020ADF80000ADF80250ADF80640ADF8F2
:1012400008406946304600F06BF96946304600F0C8
:10125000ADF96946304600F0F3F96946304600F0D2
:1012600033FA0121304600F048F90821304600F0F9
:1012700097F90821304600F0D9F90821304600F0EE
:101280001DFA0821304600F051FA0121304600F0E5
:101290001DF96421304600F053FA6421304600F015
:1012A00051FA6421304600F04FFA6421304600F0D4
:1012B0004DFA0121304600F016F908B070BD00006B
:1012C00000080140F0B50E46074689B00121022012
:1012D000FFF758FC01210820FFF76CFC01210420D6
:1012E000FFF768FCC020ADF8100018258DF81350EA
:1012F00003248DF8124004A93148FFF721FBADF813
:1013000010408DF813508DF8124004A92D48FFF7B6
:1013100017FBADF814602C4EADF8187001250024B1
:10132000ADF81A50ADF8164005A9304600F012FA93
:101330007020ADF80000ADF80250ADF80640ADF8F1
:1013400008406946304600F0EBF86946304600F048
:101350002DF96946304600F073F96946304600F0D1
:10136000B3F90121304600F0C8F80821304600F0FA
:1013700017F90821304600F059F90821304600F0ED
:101380009DF90821304600F0D1F90121304600F0E6
:101390009DF86421304600F0D3F96421304600F016
:1013A000D1F96421304600F0CFF96421304600F0D5
:1013B000CDF90121304600F096F809B0F0BD0000EB
:1013C00000080140000C01400004004070B50C46CC
:1013D000054688B001210420FFF7D4FB0121082035
:1013E000FFF7E8FB4FF47070ADF81C0018208DF883
:1013F0001F0003208DF81E0007A92C48FFF7A0FA54
:10140000ADF81450ADF81040294E01250024ADF878
:101410001650ADF8124004A9304600F09BF9702038
:10142000ADF80000ADF80250ADF80640ADF8084048
:101430006946304600F074F86946304600F0B6F868
:101440006946304600F0FCF86946304600F03CF949
:101450000121304600F051F80821304600F0A0F894
:101460000821304600F0E2F80821304600F026F965
:101470000821304600F05AF90121304600F026F8E4
:101480006421304600F05CF96421304600F05AF9DE
:101490006421304600F058F96421304600F056F9D6
:1014A0000121304600F01FF808B070BD000C01406B
:1014B0000008004010B54FF4A060FFF74BFBBDE8FB
:1014C000104040F60F612720FFF724BE0029018855
:1014D00002D041F0800101E021F0800101807047DD
:1014E000C943018270470029018802D041F00101FF
:1014F00001E021F0010101807047002930F8441F0C
:1015000002D041F4004101E0C1F30E0101807047B7
:10151000002A828901D00A4300E08A438281704711
:1015200030B5028C22F001020284028C8388048B85
:1015300022F0020224F073050C882C430D89154318
:101540004A882A43114DA8420BD0114DA84208D019
:10155000104DA84205D0104DA84202D00F4DA84210
:101560000DD122F008054A8923F440732A4322F062
:1015700004058A882A438D891D43CB892B438380A8
:101580000483C9888186028430BD0000002C01409C
:101590000034014000400140004401400048014047
:1015A000028B22F008020A430283704770B5028C56
:1015B00022F010020284028C8488038B0D8823F4AD
:1015C000E6464FF6FF7303EA052535430E8922F000
:1015D000200203EA061616434A8803EA021232433F
:1015E000104EB04202D0104EB04215D122F080060B
:1015F0004A8924F4406403EA0212324322F040068E
:101600008A8803EA021232438E8903EA8606264359
:10161000CC8903EA8404344384800583C988018724
:10162000028470BD002C014000340140028B4FF653
:10163000FF7322F4006203EA012111430183704722
:1016400070B5028C22F480720284028C8488838BB1
:101650000D8823F073031D4322F400730E894FF6A7
:10166000FF7202EA06261E434B8802EA0323334335
:10167000104EB04202D0104EB04215D123F4006695
:101680004B8924F4405402EA0323334323F4806655
:101690008B8802EA032333438E8902EA0616264327
:1016A000CC8902EA0414344384808583C988818705
:1016B000038470BD002C014000340140828B22F075
:1016C00008020A438283704770B5028C22F480526C
:1016D0000284048C8288838B0D8823F4E6464FF6BF
:1016E000FF7303EA0525354324F400560C8903EA09
:1016F000043434434E8803EA06362643094CA0429C
:1017000002D0094CA04205D122F480448A8903EA20
:101710008212224382808583C988A0F84010068403
:1017200070BD0000002C014000340140828B4FF658
:10173000FF7322F4006203EA0121114381837047A1
:10174000818670470187704781877047A0F84010F5
:101750007047000030B502881B4B1C4C98420DD0DE
:10176000A0420BD0B0F1804F08D0194DA84205D04F
:10177000184DA84202D0184DA84203D122F070059E
:101780004A882A43154DA84206D0154DA84203D0D9
:1017900022F44075CA882A4302808A8882850A8892
:1017A000028598420AD0A04208D00E4A904205D045
:1017B0000D4A904202D00D4A904201D1097A018629
:1017C0000121818230BD0000002C01400034014025
:1017D0000004004000080040000C004000100040E1
:1017E0000014004000400140004401400048014016
:1017F000F0B5054687B0012144F20400FFF7DAF99D
:10180000224E304600F044F97015ADF81000032464
:101810008DF8124018201E4F8DF8130004A9384689
:10182000FFF78EF83015ADF8100004208DF8130086
:1018300004A93846FFF784F825208DF814008DF8A8
:1018400015408DF8164001208DF8170005A8FFF708
:101850004FF90020ADF80400ADF80600ADF808001F
:10186000ADF80C000C20ADF80A0000956946304632
:1018700000F086F9012240F22551304600F068F967
:101880000121304600F0F2F807B0F0BD0038014009
:101890000008014070B5054686B001210420FFF71D
:1018A00089F901214804FFF76DF90424ADF81040CF
:1018B00018208DF813000320134E8DF8120004A990
:1018C0003046FFF73DF80820ADF810008DF81340C2
:1018D00004A93046FFF734F80020ADF80400ADF855
:1018E0000600ADF80800ADF80C000C20074CADF870
:1018F0000A0000956946204600F042F90121204681
:1019000000F0B4F806B070BD00080140004400408B
:1019100030B5044685B001210820FFF74BF90121BD
:101920008804FFF72FF94FF48060ADF810001820FD
:101930008DF813000320144D8DF8120004A92846D9
:10194000FEF7FEFFE814ADF8100004208DF8130038
:1019500004A92846FEF7F4FF0020ADF80400009427
:10196000ADF80600ADF80800ADF80C000C20074CEF
:10197000ADF80A006946204600F002F90121204630
:1019800000F074F805B030BD000C01400048004084
:1019900010B54FF416542046FFF72AFF2046FFF7F4
:1019A00079FF2046FFF7B4FFBDE81040FEF77EBF89
:1019B0002DE9F0412A4C40F22551204600F0A9F8CB
:1019C000002824D0204600F031F92749254A4B79D8
:1019D000D0540020312B00D948714B795B1CDBB20D
:1019E0004B714D7801246DB1012D14D0022D1AD008
:1019F000032D0CD1C8718D79AB4208D1194EC87036
:101A0000323624E0C8711278FF2A02D04871BDE84E
:101A1000F0814C70FBE7C8715278012A01D1022095
:101A20000FE048710DE0C871042BF0D1D3788B70B2
:101A3000927843EA0222D21DD2B28A71312AF0D8BA
:101A400003204870E3E7D75CF7545B1CCB70CB787E
:101A5000AB42F8D34871887148700C70D7E700002A
:101A600000380140260200203C0000200029818926
:101A700002D041F4005101E021F40051818170470E
:101A8000002A828A01D00A4300E08A43828270479A
:101A9000174910B588420AD101218C032046FFF76F
:101AA00095F82046BDE810400021FFF78FB8114996
:101AB000884202D101214C0410E00F49884202D132
:101AC00001218C040AE00D49884202D10121CC0495
:101AD00004E00B4988420AD101210C052046FFF79A
:101AE0005DF82046BDE810400021FFF757B810BD53
:101AF000003801400044004000480040004C0040D5
:101B0000005000400246002012880A4200D0012006
:101B1000704730B501F01F0201240025C1F34213C4
:101B200004FA02F2012B0FD0022B0FD0838A4FEA66
:101B300011210088134204FA01F400EA040001D0E4
:101B400000B10125284630BD8389F0E7038AEEE71E
:101B500010B5C1F3421301F01F040121A140012B74
:101B600007D0022B07D01430002A026805D00A43A0
:101B700004E00C30F8E71030F6E78A43026010BD4D
:101B800030B50446008A85B00D464CF6FF7108401A
:101B9000E98801432182A1894EF6F3100140A8880B
:101BA0002A8910436A890A431043A081A08A4FF60C
:101BB000FF410840A9890143A1826846FFF712F856
:101BC0001948844201D1039800E00298A1890904D0
:101BD00000EBC00101EB0010296801D5490000E0CD
:101BE0008900B0FBF1F06422B0FBF2F109010B09AE
:101BF0006FF018056B4300EB8300A3891D044FF0C1
:101C0000320306D503EBC000B0FBF2F000F0070092
:101C100005E003EB0010B0FBF2F000F00F0008430A
:101C2000208105B030BD0000003801408088C0F33D
:101C300008007047C1F308018180704710B54FF468
:101C400000542046FEF7FCFD002807D00449002080
:101C500008712046BDE81040FEF768BD10BD0000C9
:101C60003C000020FEE700000FB4054B10B503A9AF
:101C7000044A029800F0DCF810BC5DF814FB000088
:101C800011260008540000207CB5491E1C4615464C
:101C9000CDE90001044B6A462146284600F0C8F809
:101CA000009A002111707CBD5F25000802E008C881
:101CB000121F08C1002AFAD170477047002001E0C6
:101CC00001C1121F002AFBD1704700002DE9FF5F00
:101CD000DDE90220010DDDF838B0024318D044F6EA
:101CE0001050A1F2FF3141430D140F98012820D06C
:101CF000A5EB0B00401C5FEA000A4FF00004474EC2
:101D0000DFF81C91A046504616D5CAF1000728E01E
:101D10000F98012443A2012808D0002100980F9BAE
:101D2000C0E90021C0E90243BDE8FF9F6FEA0B0153
:101D3000F4E7CBF10000DEE7074612E0F80707D032
:101D40002246334640464946FEF7C7FA8046894652
:101D50002246334610461946FEF7BFFA04460E46A1
:101D60007F10002FEAD1DDE90201BAF1000F4246EF
:101D70004B4602DAFEF7B1FA01E0FEF720FB04461B
:101D80000E460022284BFEF7B3FB03D84FF0FF307E
:101D9000014607E00022254B20463146FEF7F6F9C2
:101DA000FEF793FC102409E0002C0ADB0A22002332
:101DB000FEF7CCFB019B30321A55641E50EA01023B
:101DC000F2D1641C019AC4F1110314440F9A012A40
:101DD00003D0012208430DD10AE0084304D00020BB
:101DE0004FF0110B0F9080E7A3EB0B056D1E0DE07C
:101DF0005B4504DD4FF0000205F1010504E003DA64
:101E00004FF00002A5F10105002AECD000980F99CF
:101E1000C0E90231C0E9004586E700000000244027
:101E20000000F03F300000000000F0430000E03F01
:101E30002DE9FF4F95B09B468946064600250FE2E7
:101E4000252877D100242746F84A0121059400E08F
:101E5000044316F8013F203B01FA03F01042F7D18A
:101E600030782A2811D06FF02F033078A0F130029B
:101E7000092A16D8059A44F0020402EB820203EB09
:101E800042021044761C0590EFE759F8042B0592A6
:101E9000002A03DA504244F40054059044F002044E
:101EA000761C30782E2816D116F8010F44F0040461
:101EB0002A280DD06FF02F023078A0F13003092BC3
:101EC00009D807EB870302EB4303C718761CF3E737
:101ED00059F8047B761C30786C280FD006DC4C282F
:101EE00017D068280DD06A2814D104E0742810D0C7
:101EF0007A280FD10DE044F400140AE044F4801471
:101F000001E044F440147278824202D104F5801456
:101F1000761C761C307866280BD013DC582877D0D6
:101F200009DC002875D04528F6D04628F4D047288B
:101F30001AD19DE118E0632835D0642879D065284E
:101F400012D195E1702873D008DC6728F1D0692898
:101F50006FD06E280DD06F2806D1B5E073282CD035
:101F6000752875D0782874D05A46179990476D1CFB
:101F700075E1C4F30250022809D003280DD0D9F826
:101F8000001004280DD00D6009F1040967E1D9F8AB
:101F90000010EA17C1E90052F6E7D9F800100D80E9
:101FA000F2E70D70F0E719F8041B8DF8001000201F
:101FB0008DF80100EA46012003E059F804AB4FF028
:101FC000FF3061074FF0000102D40DE008F101017C
:101FD0008846B9420FDA8045F8DB1AF80810002964
:101FE000F4D108E008F1010188468142FADB1AF8D1
:101FF00008100029F6D105985B46A0EB080721469A
:102000003846179A00F094FA284400EB080507E0D8
:102010004DE029E10DE01AF8010B5A461799904757
:10202000B8F10108F7D25B4621463846179A13E10A
:1020300042E00A220092C4F302524FF0000A022A40
:1020400008D059F804CB032A4FEAEC710AD00DE00E
:1020500029E02AE009F1070121F00702F2E802C1B4
:10206000914609E00FFA8CFC4FEAEC71042A03D187
:102070004FFA8CFC4FEAEC71002907DA0A4600217E
:10208000DCF1000C61EB02012D2202E0220504D5F7
:102090002B228DF80420012203E0E20701D0202248
:1020A000F7E7904659E00A2102E010220DE01021E6
:1020B0004FF0000A00910BE010224FF0000A44F0AC
:1020C00004040827009203E008224FF0000A00925F
:1020D000C4F30252022A05D059F804CB0021032A86
:1020E00008D009E009F1070121F00702F2E802C176
:1020F000914605E01FFA8CFC042A01D10CF0FF0C7C
:102100004FF00008220728D5702806D0009B83F0E6
:10211000100353EA0A0305D00EE040228DF8042094
:10212000012208E05CEA010206D030228DF804208A
:102130008DF8050002229046009B83F0080353EAC5
:102140000A030AD15CEA010201D1620705D53022F7
:102150008DF804204FF001087F1E582804D034A0C9
:1021600003900EA802900DE036A0F9E753466046B2
:10217000009AFEF7EBF984460398825C0298401EB1
:10218000029002705CEA0100F0D1029806A9081AD8
:1021900000F1200A600702D524F4803400E0012712
:1021A000574502DDA7EB0A0000E0002000EB0A0122
:1021B000009005984144401A0590E00306D45B4620
:1021C0002146179A059800F0B3F90544002706E068
:1021D00001A85A46C05D179990476D1C7F1C474562
:1021E000F6DBE0030CD55B462146179A059800F014
:1021F0009FF9054404E030205A46179990476D1C1A
:102200000099481E00900029F5DC08E00298029928
:102210005A460078491C0291179990476D1CBAF1F3
:102220000001AAF1010AF1DC65E1000009280100C2
:10223000303132333435363738396162636465663C
:1022400000000000303132333435363738394142FE
:10225000434445460000000000F058F90544761C50
:10226000307800287FF4ECAD19B02846BDE8F08F37
:10227000620700D4062709F1070222F0070CFCE8E8
:102280000223E14603F000485FEA080C02D00FF297
:10229000702C0DE05FEA045C02D50FF2682C07E0B9
:1022A0005FEAC47C02D00FF2602C01E0AFF2700C48
:1022B0004FF0FF3823F00043CDF850C065280CD014
:1022C00006DC452809D046281DD047283DD13DE0F1
:1022D000662818D067287ED138E00021112F01DB55
:1022E000112000E0781CCDE9000106A90EA8FFF737
:1022F000EDFCDDE90F010E9A03910021009207F138
:10230000010A04914DE04FF000400097CDE9011023
:1023100006A90EA8FFF7DAFCDDE90F0203920E9B77
:1023200011990022DDF80CA00093049211B9791CD8
:1023300000EB010AB7EB0A0004D4C0F1FF3007F14B
:10234000010A0490AAEB0700019044E0012F00DA93
:1023500001270021112F01DD112000E03846CDE9D1
:10236000000106A90EA8FFF7B1FCDDE90F010E9AE6
:102370000391002104910092BA4621070CD40399DD
:10238000514500DA8A46BAF1010F05DD009AAAF13B
:102390000101515C302908D0B84202DA10F1040F73
:1023A00006DA0121CDE9011015E0AAF10101E9E702
:1023B000002805DC049901440491AAEB000102E025
:1023C000411C514500DD8A460499401A401C019089
:1023D0004FF000400290200704D40198504501DBE3
:1023E000CDF8048000208DF84F0002980DF14F07C2
:1023F000B0F1004F25D02B200E9002984FF002082C
:1024000000280CDA404202902D200E9007E00A21AD
:102410000298FEF785F83031029007F8011DB8F1F7
:102420000001A8F10108F2DC02980028EFD1791E22
:102430000E980870307800F0200040F0450007F852
:10244000020D12A8C01B00F107081498007800B113
:10245000012000EB0A01019801EBE071059841446D
:10246000401A401E0590E00306D45B462146179AA9
:10247000059800F05DF805441498007818B15A46A4
:10248000179990476D1CE00324D55B462146179AA7
:10249000059800F04DF805441CE00498002807DB7F
:1024A000DDE90301884203DD0098405C179901E0F3
:1024B000179930205A469047049805F10105401CB1
:1024C00004900198401E019004D12E205A4617997D
:1024D00090476D1CBAF10001AAF1010ADDDC05E0AC
:1024E00017F8010B5A46179990476D1CB8F1000177
:1024F000A8F10108F4DC5B462146179A0598ABE683
:102500002D0000002B000000200000002DE9F0410C
:10251000044600251E461746880404D405E03946C3
:102520002020B0476D1C641EF9D52846BDE8F08117
:102530002DE9F041044600251E469046C80301D50A
:10254000302700E02027880404D505E041463846BE
:10255000B0476D1C641EF9D52846BDE8F0814A6875
:10256000002A06D00A68531C0B6010704868401E91
:102570004860704710B5FDF791FF064A064BFDF71E
:10258000ACFE0022054BFDF701FEFDF798FFC0B23F
:1025900010BD0000721CC7711CC7E13F000039402C
:1025A00010B56FF00400FEF77FFD0A480A49006885
:1025B000B0FBF1F0C1B2094801EB41020170C2EB7E
:1025C000C1114FF6FF7202EAC10141800121416051
:1025D00010BD00000000002000127A00340000202E
:1025E0000A4841684FF0E0204161002282610169A0
:1025F00041F0010101610169CB0701D0C903FAD59E
:10260000016921F0010101618261704734000020FD
:1026100070B5074D0446C1B22846FFF70BFB4021B9
:102620002846FFF76FFA0028F9D0204670BD000059
:102630000038014088B0FFF7B3FFFEF73BFFFEF71D
:1026400019FBFEF745FBFEF75FFBFEF7F5FBFEF718
:1026500019FCFEF72BFBFEF7C9F9FEF715FD1C214F
:102660006846FDF788FD4FF47A7400210846FEF7AE
:102670001FFB2046FFF7B4FF01210020FEF718FBE7
:102680002046FFF7ADFFF0E7F0B50B30154D20F019
:1026900007010024144A0FE003688B420BD38B42DE
:1026A00005D95E1A43184768C3E9006700E043682C
:1026B000136002C004E0021D10680028ECD120461F
:1026C000002802D1286808B10020F0BD064A07485A
:1026D0001060074A121A22F00702C0E90024012004
:1026E0002860D7E75C0000205800002094040020F8
:1026F000901400200FB40C4810B54468ADF5806DFF
:10270000002C0CD00DF20C4340F2FF316846DDF88E
:102710000824FFF7B9FA011E01DD6846A0470DF550
:10272000806D10BC5DF814FB4800002070B50646B3
:10273000002500F023F88468FF2C01DC4FF480743E
:1027400014213046FDF717FD2046FFF79DFFB060CE
:1027500018B10125F460284670BD02A0FFF7CAFF3A
:10276000F9E70000496E73756666696369656E74A2
:10277000206D656D6F727921000000000048704780
:10278000480000207221016000210122C0E90112ED
:10279000C160016141618161704710B504464FF429
:1027A000B471FDF7E8FC201DFFF7ECFF002020626C
:1027B0000120606210BD0000D82700080000002042
:1027C00060000000AC1C00083828000860000020F1
:1027D00030180000BC1C000800A24A0400000000E1
:1027E00000000000010203040607080902040608AD
:1027F00000000000010203040102030406070809A7
:1028000000000000000000000000000000000000C8
:1028100000000000000000000000000000000000B8
:1028200000000000000000000004000000000000A4
:082830000000000000000000A0
:0400000508000131BD
:00000001FF
